{
    "contractName": "TicTacToe",
    "abi": [
        {
            "anonymous": false,
            "inputs": [
                {
                    "indexed": false,
                    "internalType": "string",
                    "name": "message",
                    "type": "string"
                }
            ],
            "name": "EndsiegAchieved",
            "type": "event"
        },
        {
            "anonymous": false,
            "inputs": [],
            "name": "GameReset",
            "type": "event"
        },
        {
            "anonymous": false,
            "inputs": [
                {
                    "indexed": false,
                    "internalType": "string",
                    "name": "message",
                    "type": "string"
                },
                {
                    "indexed": false,
                    "internalType": "int256",
                    "name": "Xwins",
                    "type": "int256"
                },
                {
                    "indexed": false,
                    "internalType": "int256",
                    "name": "Owins",
                    "type": "int256"
                }
            ],
            "name": "GameTied",
            "type": "event"
        },
        {
            "anonymous": false,
            "inputs": [
                {
                    "indexed": false,
                    "internalType": "string",
                    "name": "player",
                    "type": "string"
                },
                {
                    "indexed": false,
                    "internalType": "uint256",
                    "name": "move",
                    "type": "uint256"
                }
            ],
            "name": "PlayerMoveMade",
            "type": "event"
        },
        {
            "anonymous": false,
            "inputs": [],
            "name": "PlayerMoveRequested",
            "type": "event"
        },
        {
            "anonymous": false,
            "inputs": [
                {
                    "indexed": false,
                    "internalType": "string",
                    "name": "player",
                    "type": "string"
                },
                {
                    "indexed": false,
                    "internalType": "int256",
                    "name": "Xwins",
                    "type": "int256"
                },
                {
                    "indexed": false,
                    "internalType": "int256",
                    "name": "Owins",
                    "type": "int256"
                }
            ],
            "name": "PlayerWon",
            "type": "event"
        },
        {
            "anonymous": false,
            "inputs": [
                {
                    "indexed": false,
                    "internalType": "string",
                    "name": "boardRow1",
                    "type": "string"
                },
                {
                    "indexed": false,
                    "internalType": "string",
                    "name": "boardRow2",
                    "type": "string"
                },
                {
                    "indexed": false,
                    "internalType": "string",
                    "name": "boardRow3",
                    "type": "string"
                }
            ],
            "name": "PrintBoard",
            "type": "event"
        },
        {
            "inputs": [],
            "name": "Owins",
            "outputs": [
                {
                    "internalType": "int256",
                    "name": "",
                    "type": "int256"
                }
            ],
            "stateMutability": "view",
            "type": "function"
        },
        {
            "inputs": [],
            "name": "ResetGame",
            "outputs": [],
            "stateMutability": "nonpayable",
            "type": "function"
        },
        {
            "inputs": [],
            "name": "Xwins",
            "outputs": [
                {
                    "internalType": "int256",
                    "name": "",
                    "type": "int256"
                }
            ],
            "stateMutability": "view",
            "type": "function"
        },
        {
            "inputs": [
                {
                    "internalType": "uint256",
                    "name": "",
                    "type": "uint256"
                }
            ],
            "name": "board",
            "outputs": [
                {
                    "internalType": "string",
                    "name": "",
                    "type": "string"
                }
            ],
            "stateMutability": "view",
            "type": "function"
        },
        {
            "inputs": [],
            "name": "currentPlayer",
            "outputs": [
                {
                    "internalType": "string",
                    "name": "",
                    "type": "string"
                }
            ],
            "stateMutability": "view",
            "type": "function"
        },
        {
            "inputs": [],
            "name": "gameActive",
            "outputs": [
                {
                    "internalType": "bool",
                    "name": "",
                    "type": "bool"
                }
            ],
            "stateMutability": "view",
            "type": "function"
        },
        {
            "inputs": [
                {
                    "internalType": "uint256",
                    "name": "move",
                    "type": "uint256"
                }
            ],
            "name": "makePlayerMove",
            "outputs": [],
            "stateMutability": "nonpayable",
            "type": "function"
        },
        {
            "inputs": [],
            "name": "printBoard",
            "outputs": [],
            "stateMutability": "nonpayable",
            "type": "function"
        },
        {
            "inputs": [],
            "name": "requestPlayerMove",
            "outputs": [],
            "stateMutability": "nonpayable",
            "type": "function"
        }
    ],
    "bytecode": "6000805460ff1916600190811790915560c06040526080818152600b60fb1b60a0526200002d9082620002b5565b50604080516101808101825260016101408201818152600160fd1b61016084018190529083528351808501855282815260208181018390528085019190915284518086018652838152808201839052848601528451808601865283815280820183905260608501528451808601865283815280820183905260808501528451808601865283815280820183905260a08501528451808601865283815280820183905260c08501528451808601865283815280820183905260e0850152845180860186528381528082018390526101008501528451808601909552918452908301526101208101919091526200012790600290600a62000146565b506000600c556000600d553480156200013f57600080fd5b5062000381565b82600a810192821562000184579160200282015b82811115620001845782518290620001739082620002b5565b50916020019190600101906200015a565b506200019292915062000196565b5090565b8082111562000192576000620001ad8282620001b7565b5060010162000196565b508054620001c59062000226565b6000825580601f10620001d6575050565b601f016020900490600052602060002090810190620001f69190620001f9565b50565b5b80821115620001925760008155600101620001fa565b634e487b7160e01b600052604160045260246000fd5b600181811c908216806200023b57607f821691505b6020821081036200025c57634e487b7160e01b600052602260045260246000fd5b50919050565b601f821115620002b057600081815260208120601f850160051c810160208610156200028b5750805b601f850160051c820191505b81811015620002ac5782815560010162000297565b5050505b505050565b81516001600160401b03811115620002d157620002d162000210565b620002e981620002e2845462000226565b8462000262565b602080601f831160018114620003215760008415620003085750858301515b600019600386901b1c1916600185901b178555620002ac565b600085815260208120601f198616915b82811015620003525788860151825594840194600190910190840162000331565b5085821015620003715787850151600019600388901b60f8161c191681555b5050505050600190811b01905550565b611a1880620003916000396000f3fe608060405234801561001057600080fd5b50600436106100935760003560e01c8063886e20ab11610066578063886e20ab146100e657806394549865146100f9578063c41db7bf14610101578063e46e1d5e14610109578063f020044f1461011257600080fd5b806304d81ca21461009857806328ed6e3f146100b45780634404a438146100d457806353259cce146100dc575b600080fd5b6100a1600c5481565b6040519081526020015b60405180910390f35b6100c76100c236600461147b565b61012f565b6040516100ab91906114da565b6100c76101cf565b6100e46101dc565b005b6100e46100f436600461147b565b610207565b6100e46107a7565b6100e4610855565b6100a1600d5481565b60005461011f9060ff1681565b60405190151581526020016100ab565b600281600a811061013f57600080fd5b01805490915061014e906114f4565b80601f016020809104026020016040519081016040528092919081815260200182805461017a906114f4565b80156101c75780601f1061019c576101008083540402835291602001916101c7565b820191906000526020600020905b8154815290600101906020018083116101aa57829003601f168201915b505050505081565b6001805461014e906114f4565b6040517f4dbf80c6758226cf6b98335f4993ea844952c7741238fe2f1252702ecf4ee7a590600090a1565b60005460ff166102535760405162461bcd60e51b815260206004820152601260248201527147616d65206973206e6f742061637469766560701b60448201526064015b60405180910390fd5b60018110158015610265575060098111155b6102ce5760405162461bcd60e51b815260206004820152603460248201527f496e76616c6964206d6f76652e20506c6561736520656e7465722061206e756d6044820152733132b9103132ba3bb2b2b710189030b732101c9760611b606482015260840161024a565b6040805180820190915260018152600160fd1b6020909101819052600282600a81106102fc576102fc61152e565b016000815461030a906114f4565b81106103185761031861152e565b8154600116156103375790600052602060002090602091828204019190065b9054901a600160f81b026001600160f81b031916146103be5760405162461bcd60e51b815260206004820152603e60248201527f53656c6563746564206d6f766520697320616c7265616479206f63637570696560448201527f642e20506c656173652073656c65637420616e6f74686572206d6f76652e0000606482015260840161024a565b6001600282600a81106103d3576103d361152e565b01906103df90826115a8565b507f655aef2c9cb527c6615305dd355b8be0f8ec930c5e23150ee48c80ae5dbc1385600182604051610412929190611706565b60405180910390a161042261098d565b1561061057604051600b60fb1b602082015260210160405160208183030381529060405280519060200120600160405160200161045f919061179b565b60405160208183030381529060405280519060200120036105c657600c546104889060016117bd565b600c819055600d546040517fb077be72f5ebcdbb60d999a7933807fad5e7c4a0d7df078aee299f5778d25a59926104c1926001926117e5565b60405180910390a1604080516101808101825260016101408201818152600160fd1b61016084018190529083528351808501855282815260208181018390528085019190915284518086018652838152808201839052848601528451808601865283815280820183905260608501528451808601865283815280820183905260808501528451808601865283815280820183905260a08501528451808601865283815280820183905260c08501528451808601865283815280820183905260e0850152845180860186528381528082018390526101008501528451808601909552918452908301526101208101919091526105c090600290600a6113cb565b50610695565b600d546105d49060016117bd565b600d819055600c546040517fb077be72f5ebcdbb60d999a7933807fad5e7c4a0d7df078aee299f5778d25a59926104c1926001929091906117e5565b610618611273565b1561068d57600c54600d54604080516060808252601b908201527f5468652067616d652068617320656e64656420696e2061207469650000000000608082015260208101939093528201527f8ecc40ea23958373eb06b2f8fd77f5d958affa27ba7b6df2e32c91bd2204a3159060a0016104c1565b610695611351565b600c5460030361071e576000805460ff191690556040517f457b0ff595db97b8c8b365e420eb18b911c19521bcebb8fdf282dfb98851c623906107139060208082526021908201527f506c6179657220582068617320776f6e2074686520426573742d6f662d4669766040820152606560f81b606082015260800190565b60405180910390a150565b600d5460030361079c576000805460ff191690556040517f457b0ff595db97b8c8b365e420eb18b911c19521bcebb8fdf282dfb98851c623906107139060208082526021908201527f506c61796572204f2068617320776f6e2074686520426573742d6f662d4669766040820152606560f81b606082015260800190565b6107a46107a7565b50565b6040517f1b009114be9408d0fa4ad2158265babf6fbf7ca68f557e5b0d7e18479533af3e906107e19060039060049060059060200161180a565b60408051808303601f1901815290829052906108089060069060079060089060200161180a565b60408051808303601f19018152908290529061082f90600990600a90600b9060200161180a565b60408051601f198184030181529082905261084b939291611847565b60405180910390a1565b6040517fc6976b6410888b44c765590c8368eb4a60e0431d4ad683c8a53ea85a8479f22e90600090a1604080516101808101825260016101408201818152600160fd1b61016084018190529083528351808501855282815260208181018390528085019190915284518086018652838152808201839052848601528451808601865283815280820183905260608501528451808601865283815280820183905260808501528451808601865283815280820183905260a08501528451808601865283815280820183905260c08501528451808601865283815280820183905260e08501528451808601865283815280820183905261010085015284518086019095529184529083015261012081019190915261097590600290600a6113cb565b506000805460ff19166001178155600c819055600d55565b600060015b600a811015610c1257600281600a81106109ae576109ae61152e565b0180546109ba906114f4565b90506001148015610a96575060026109d3826001611880565b600a81106109e3576109e361152e565b01600081546109f1906114f4565b81106109ff576109ff61152e565b815460011615610a1e5790600052602060002090602091828204019190065b9054901a600160f81b026001600160f81b031916600282600a8110610a4557610a4561152e565b0160008154610a53906114f4565b8110610a6157610a6161152e565b815460011615610a805790600052602060002090602091828204019190065b9054901a600160f81b026001600160f81b031916145b8015610b6c57506002610aa98282611880565b600a8110610ab957610ab961152e565b0160008154610ac7906114f4565b8110610ad557610ad561152e565b815460011615610af45790600052602060002090602091828204019190065b9054901a600160f81b026001600160f81b031916600282600a8110610b1b57610b1b61152e565b0160008154610b29906114f4565b8110610b3757610b3761152e565b815460011615610b565790600052602060002090602091828204019190065b9054901a600160f81b026001600160f81b031916145b8015610bf357506040805180820190915260018152600160fd1b6020909101819052600282600a8110610ba157610ba161152e565b0160008154610baf906114f4565b8110610bbd57610bbd61152e565b815460011615610bdc5790600052602060002090602091828204019190065b9054901a600160f81b026001600160f81b03191614155b15610c0057600191505090565b610c0b600382611880565b9050610992565b5060015b6004811015610e9757600281600a8110610c3257610c3261152e565b018054610c3e906114f4565b90506001148015610d1a57506002610c57826003611880565b600a8110610c6757610c6761152e565b0160008154610c75906114f4565b8110610c8357610c8361152e565b815460011615610ca25790600052602060002090602091828204019190065b9054901a600160f81b026001600160f81b031916600282600a8110610cc957610cc961152e565b0160008154610cd7906114f4565b8110610ce557610ce561152e565b815460011615610d045790600052602060002090602091828204019190065b9054901a600160f81b026001600160f81b031916145b8015610df157506002610d2e826006611880565b600a8110610d3e57610d3e61152e565b0160008154610d4c906114f4565b8110610d5a57610d5a61152e565b815460011615610d795790600052602060002090602091828204019190065b9054901a600160f81b026001600160f81b031916600282600a8110610da057610da061152e565b0160008154610dae906114f4565b8110610dbc57610dbc61152e565b815460011615610ddb5790600052602060002090602091828204019190065b9054901a600160f81b026001600160f81b031916145b8015610e7857506040805180820190915260018152600160fd1b6020909101819052600282600a8110610e2657610e2661152e565b0160008154610e34906114f4565b8110610e4257610e4261152e565b815460011615610e615790600052602060002090602091828204019190065b9054901a600160f81b026001600160f81b03191614155b15610e8557600191505090565b80610e8f81611899565b915050610c16565b5060038054610ea5906114f4565b90506001148015610f57575060078054600090610ec1906114f4565b8110610ecf57610ecf61152e565b815460011615610eee5790600052602060002090602091828204019190065b9054901a600160f81b026001600160f81b031916600260010160008154610f14906114f4565b8110610f2257610f2261152e565b815460011615610f415790600052602060002090602091828204019190065b9054901a600160f81b026001600160f81b031916145b80156110045750600b8054600090610f6e906114f4565b8110610f7c57610f7c61152e565b815460011615610f9b5790600052602060002090602091828204019190065b9054901a600160f81b026001600160f81b031916600260010160008154610fc1906114f4565b8110610fcf57610fcf61152e565b815460011615610fee5790600052602060002090602091828204019190065b9054901a600160f81b026001600160f81b031916145b801561107a57506040805180820190915260018152600160fd1b602090910181905260078054600090611036906114f4565b81106110445761104461152e565b8154600116156110635790600052602060002090602091828204019190065b9054901a600160f81b026001600160f81b03191614155b8061126257506005805461108d906114f4565b9050600114801561113f5750600780546000906110a9906114f4565b81106110b7576110b761152e565b8154600116156110d65790600052602060002090602091828204019190065b9054901a600160f81b026001600160f81b0319166002600301600081546110fc906114f4565b811061110a5761110a61152e565b8154600116156111295790600052602060002090602091828204019190065b9054901a600160f81b026001600160f81b031916145b80156111ec575060098054600090611156906114f4565b81106111645761116461152e565b8154600116156111835790600052602060002090602091828204019190065b9054901a600160f81b026001600160f81b0319166002600301600081546111a9906114f4565b81106111b7576111b761152e565b8154600116156111d65790600052602060002090602091828204019190065b9054901a600160f81b026001600160f81b031916145b801561126257506040805180820190915260018152600160fd1b60209091018190526007805460009061121e906114f4565b811061122c5761122c61152e565b81546001161561124b5790600052602060002090602091828204019190065b9054901a600160f81b026001600160f81b03191614155b1561126d5750600190565b50600090565b600060015b6009811161134957600281600a81106112935761129361152e565b01805461129f906114f4565b9050600114801561132a57506040805180820190915260018152600160fd1b6020909101819052600282600a81106112d9576112d961152e565b01600081546112e7906114f4565b81106112f5576112f561152e565b8154600116156113145790600052602060002090602091828204019190065b9054901a600160f81b026001600160f81b031916145b1561133757600091505090565b8061134181611899565b915050611278565b506001905090565b6000604051806040016040528060018152602001600b60fb1b81525090506000604051806040016040528060018152602001604f60f81b8152509050818051906020012060016040516113a491906118b2565b6040518091039020146113b757816113b9565b805b6001906113c69082611928565b505050565b82600a8101928215611404579160200282015b8281111561140457825182906113f49082611928565b50916020019190600101906113de565b50611410929150611414565b5090565b808211156114105760006114288282611431565b50600101611414565b50805461143d906114f4565b6000825580601f1061144d575050565b601f0160209004906000526020600020908101906107a491905b808211156114105760008155600101611467565b60006020828403121561148d57600080fd5b5035919050565b6000815180845260005b818110156114ba5760208185018101518683018201520161149e565b506000602082860101526020601f19601f83011685010191505092915050565b6020815260006114ed6020830184611494565b9392505050565b600181811c9082168061150857607f821691505b60208210810361152857634e487b7160e01b600052602260045260246000fd5b50919050565b634e487b7160e01b600052603260045260246000fd5b634e487b7160e01b600052604160045260246000fd5b601f8211156113c657600081815260208120601f850160051c810160208610156115815750805b601f850160051c820191505b818110156115a05782815560010161158d565b505050505050565b8181036115b3575050565b6115bd82546114f4565b67ffffffffffffffff8111156115d5576115d5611544565b6115e9816115e384546114f4565b8461155a565b6000601f82116001811461161d57600083156116055750848201545b600019600385901b1c1916600184901b178455611682565b600085815260209020601f19841690600086815260209020845b838110156116575782860154825560019586019590910190602001611637565b50858310156116755781850154600019600388901b60f8161c191681555b50505060018360011b0184555b5050505050565b60008154611696816114f4565b8085526020600183811680156116b357600181146116cd576116fb565b60ff1985168884015283151560051b8801830195506116fb565b866000528260002060005b858110156116f35781548a82018601529083019084016116d8565b890184019650505b505050505092915050565b6040815260006117196040830185611689565b90508260208301529392505050565b60008154611735816114f4565b6001828116801561174d576001811461176257611791565b60ff1984168752821515830287019450611791565b8560005260208060002060005b858110156117885781548a82015290840190820161176f565b50505082870194505b5050505092915050565b60006114ed8284611728565b634e487b7160e01b600052601160045260246000fd5b80820182811260008312801582168215821617156117dd576117dd6117a7565b505092915050565b6060815260006117f86060830186611689565b60208301949094525060400152919050565b60006118168286611728565b601f60fa1b80825261182b6001830187611728565b908152905061183d6001820185611728565b9695505050505050565b60608152600061185a6060830186611494565b828103602084015261186c8186611494565b9050828103604084015261183d8185611494565b80820180821115611893576118936117a7565b92915050565b6000600182016118ab576118ab6117a7565b5060010190565b60008083546118c0816114f4565b600182811680156118d857600181146118ed5761191c565b60ff198416875282151583028701945061191c565b8760005260208060002060005b858110156119135781548a8201529084019082016118fa565b50505082870194505b50929695505050505050565b815167ffffffffffffffff81111561194257611942611544565b611950816115e384546114f4565b602080601f831160018114611985576000841561196d5750858301515b600019600386901b1c1916600185901b1785556115a0565b600085815260208120601f198616915b828110156119b457888601518255948401946001909101908401611995565b50858210156119d25787850151600019600388901b60f8161c191681555b5050505050600190811b0190555056fea264697066735822122011563e121c4633304b1c188edee10806196661f477ac8581f616bfcd3e30faac64736f6c63430008130033",
    "sourcePath": "f:/OneDrive/STUDIUM/Blockchain/Coding_PC/Solidity_TicTacToe/Solidity_TicTacToe.sol",
    "compiler": {
        "name": "solc",
        "version": "0.8.19+commit.7dd6d404"
    },
    "functionHashes": {
        "Owins()": "e46e1d5e",
        "ResetGame()": "c41db7bf",
        "Xwins()": "04d81ca2",
        "board(uint256)": "28ed6e3f",
        "currentPlayer()": "4404a438",
        "gameActive()": "f020044f",
        "makePlayerMove(uint256)": "886e20ab",
        "printBoard()": "94549865",
        "requestPlayerMove()": "53259cce"
    },
    "gasEstimates": {
        "creation": {
            "codeDepositCost": "1336000",
            "executionCost": "infinite",
            "totalCost": "infinite"
        },
        "external": {
            "Owins()": "2350",
            "ResetGame()": "infinite",
            "Xwins()": "2285",
            "board(uint256)": "infinite",
            "currentPlayer()": "infinite",
            "gameActive()": "2398",
            "makePlayerMove(uint256)": "infinite",
            "printBoard()": "infinite",
            "requestPlayerMove()": "979"
        },
        "internal": {
            "changePlayer()": "infinite",
            "checkTieCondition()": "infinite",
            "checkWinningCondition()": "infinite",
            "printBoardint()": "infinite"
        }
    }
}